:0C0000000C943F000C946F000C947700EF
:10000C000C9400000C9400000C9400000C94000064
:10001C000C9400000C9400000C9402010C94000051
:10002C000C9483000C9400000C94D2000C940000EF
:10003C000C9400000C9400000C9400000C94000034
:10004C000C9400000C9400001027E80364000A00D4
:10005C00010000100001100001000000000025321A
:10006C00640D0A0001000200660002000600680030
:10007C000000F894EE27ECBBF1E0FBBFEBBFE5BF53
:10008C00F8E1F1BDE1BD8DE0A2E0BB27ED938A95CF
:10009C00E9F780E094E0A0E6ED930197E9F7E0E75B
:1000AC00F0E085919591009761F0A591B59105903F
:1000BC001590BF01F00105900D920197E1F7FB013E
:1000CC00F0CFEFE5EDBFE4E0EEBFC0E6D1E00C947D
:1000DC002501EA93FA93E1E0F0E03F01F991E9910F
:1000EC001895EA93EFB7EA9366247724A998E0E091
:1000FC00E8BBE991EFBFE9911895EA93FA93EFB752
:10010C00EA931A930A931BB10CB1E12FEC7189F4A9
:10011C00E92D9394F0E0E05AFE4F0083E0E4E915FA
:10012C0009F49924B394E0E4EB1519F4BB24689416
:10013C0020F8013609F4C09A013409F4C09802364B
:10014C0009F4C19A023409F4C198033609F4C29A2D
:10015C00033409F4C298043609F4C39A043409F43C
:10016C00C398053609F4C49A053409F4C4980636C4
:10017C0009F4C59A063409F4C598073609F4C69AE9
:10018C00073409F4C698083609F4C79A083409F4F8
:10019C00C7980991199112C0EA93FA93EFB7EA93B1
:1001AC00CC2061F0CA94ED2DD394F0E0E056FE4FD4
:1001BC00E081ECB9E0E4ED1509F4DD24E991EFBF41
:1001CC00F991E9911895E0E4EC15E9F3F894CC2059
:1001DC0011F45D990DC0EA2DA394F0E0E056FE4FAA
:1001EC00A881A083E0E4EA1509F4AA24C39402C010
:1001FC00E881ECB9789421C0AA93BA93EA93FA9364
:10020C00EFB7EA93A0EEB1E0ED91FD913196FE933C
:10021C00EE93E6E0E2BFE991EFBFF991E991B99174
:10022C00A9911895E881E7B98BE18A95F1F7369A8F
:10023C00349BFECF349AE4B1F5B121960895E1E0F8
:10024C00EBBBE0E0EABBE8BBEFEFE7BBE0E0E5BB14
:10025C00E2E0E4BBECE0E2BBE3E0E1BBE3BFE0E007
:10026C00E2BFECBFEFBDEEBDEDBDECBDE7BDE6BD45
:10027C00EBBDEABDE9BDE8BDE2BDE5BDE4BDE3BD56
:10028C00EBB7E06CEBBFEAE0E5BFE0E0E4BFE0EC2D
:10029C00EABFE1E0E9BFE0E0EBB9E8EDEAB9E6E896
:1002AC00E0BDE0E0E0BDE3E3E9B9E0E8E8B9E0E0B7
:1002BC00E0BFE7B9E3EAE6B9E0B7EF71E0BFE0E031
:1002CC00EDB9E6BF7894E1E0F0E0E615F705D1F57D
:1002DC00E1E0F0E0E615F705A9F5E0E0EA93A2DF2E
:1002EC00662777270E94C203A3E2BBED89EF9EE34A
:1002FC000E94F0030E9489038F01EAE6F0E0FA9372
:10030C00EA93F801662777270E945B0484E05DD1AD
:10031C002696E8ECF0E0FA93EA930E945003A09141
:10032C00E001B091E101A53FE1E0BE0750F0A99BCF
:10033C0002C0A99801C0A99AE0E0E093E001E09323
:10034C00E101C6CFC0CFFFCFEA81EA933CDFA881A1
:10035C00B981ED91FD913196FE93EE93239608951C
:10036C0026970E94600410E0AC85BD85E0E0F0E0CB
:10037C00ED93FC93EA89FB893196EA8BFB8B3197E1
:10038C00E4912E2FE03011F40C94E302E12FE030D5
:10039C0039F4253211F411E002C00E9427030CC17C
:1003AC00E130A9F4253219F40E94270304C112E0AC
:1003BC0040E000E02D3211F401E0FEC02B3211F4CC
:1003CC004BE2FAC0203211F440E2F6C002C0E23037
:1003DC0039F450E013E0203311F40068EDC004C090
:1003EC00E33011F00C94E202203310F02A3308F0C1
:1003FC0007C0AAE05A9F502DE22FE0535E0FDCC0DD
:10040C00E22FE33649F40E943003E889F989A4818C
:10041C00AA930E943603CFC0E33741F40E94300305
:10042C000E943E030E9412031E2F0AC0E03761F4A3
:10043C000E9430030E943E030E941C031E2F086082
:10044C0002600F7730E035C0E43611F0E93611F474
:10045C00046002C0E53731F4E4E5F0E0EE83FF839D
:10046C0015E00DC0E83511F4086004C0E83711F050
:10047C000C94E102EEE5F0E0EE83FF8314E002FF62
:10048C0014C00E9430030E944803AB85AA233AF49F
:10049C00EA85FB850E944204EA87FB874DE24030E7
:1004AC0011F01F5F01C00B7F04C00E9430030E943B
:1004BC00480300FD11C0151778F407FF08C002FFB0
:1004CC0004C00B7F242F115001C020E301C020E297
:1004DC000E9427035150EFCF312F01FF17C030304E
:1004EC00A1F003FF06C0EE81FF812591EE83FF830F
:1004FC0005C0AE81BF812D91AE83BF830E942703BF
:10050C00503009F051503150EACF4BC020E3EE810E
:10051C00FF810E945704E887F987EE81FF813296AC
:10052C00EE83FF83E885F985AA85BB85AE17BF07E7
:10053C0050F02F5FA885B985EA85FB85EA1BFB0B7C
:10054C00EA87FB87EFCF2A3328F003FF02C0295F2D
:10055C0001C0295D04FD1AC0213320F4A885B9859A
:10056C00119709F409C0531710F000FF01C013C014
:10057C0020E207FF0BC020E3006102FF07C00B7FE6
:10058C004A930E943603503009F051500E942703C1
:10059C00503009F051503150A885B985129708F0A8
:1005AC00B5CF00FF08C0503031F05150E0E2EA9373
:1005BC000E943603F8CF10E0DDCEAC85BD850E94DD
:1005CC0053040E94670464960895FF92F82E2697B0
:1005DC001A930A93DE0114960E943E048D01E0E00A
:1005EC00EC83ED83EE83EF83DE0118960E943E04CC
:1005FC000E945304FA93EA931A930A93EAEAF1E0FD
:10060C00FA93EA93FE013896FA93EA93A9DE1981DC
:10061C0008812896FF900895A991B991EE27FF279C
:10062C006D91662311F03196FBCF0895AA27BB2755
:10063C00E991F9910590002011F01196FBCFFD0185
:10064C0008952A93ED85FE85FA93EA93E989FA8950
:10065C0009950895E889F9893497E88BF98B089501
:10066C00ED85FE85FA93EA93E989FA89099508954F
:10067C00A889B98914960E945304EE83FF83FA93D8
:10068C00EA930895A889B98914960E945304EA87BD
:10069C00FB870895E991F991309639F080ED97E058
:1006AC000197F1F7A8953197C9F70895552342F4AE
:1006BC00503811F4E0FF04C03196691F791F6BF0BC
:1006CC0050E8572711F45F9373C05F3F31F0660F0A
:1006DC00000C57956795752F08955F9300200AF0CD
:1006EC0073C06CC050E8192E1522880F991F9527DE
:1006FC00550F879550E8072E0522660F771F752733
:10070C00550F67950895689401C0E8945F93F2DFE4
:10071C00703818F07F3F08F44BC056E1571BAAF411
:10072C00519558300EF4593030F0EFEFFFEF6FEF7A
:10073C007FE777F91AC077275523B9F0EE0FFF1F23
:10074C00661F771F5A95D1F710C07727583028F0BD
:10075C00EF2FF62F672F5850F9CF552331F07695A0
:10076C006795F795E7955A95D1F700200AF488D04C
:10077C005F910895689401C0E89430976040704090
:10078C00B1F0002426F0772312F4009479D0172EC0
:10079C007EE1112032F07A95EE0FFF1F661F111CBF
:1007AC00F9CFEF2FF62F612D5F938ADF5F910895BC
:1007BC00EE27FF27662777275F910895EFEFFFEF6E
:1007CC006FE77FEF5F910895EFEFFFEF6FE77FE744
:1007DC005F9108955F9386DF703851F3903841F341
:1007EC0001240894791F23F41CF300203AF3ECCF76
:1007FC000F921F932F933F934F93112722279927E3
:10080C00689FA0018F9F302D410D591F6B9F300D9C
:10081C00411D591F8E9F27D0BF9F25D06A9F23D083
:10082C00BE9F1DD0AF9F1BD0AE9F110D291F391F2E
:10083C00491F591FE32FF42F652F522F4F913F91D2
:10084C002F911F910F9066232AF0550FEE1FFF1F5B
:10085C00661F02C073954BF229DF5F910895100D4E
:10086C00211D391F02C0200D311D491F591F08952C
:10087C000024AF0DB01D0895F195E195F040089559
:10088C00F09560957095E195FF4F6F4F7F4F0895F0
:10089C006F2F660F660B762F0895ED91FC911197D3
:1008AC0008950590F491E02D08957A936A93FA9344
:1008BC00EA9308955A934A933A932A931A930A9374
:1008CC0008955D814C813B812A81198108810895AD
:00000001FF
